{
  "contractName": "Kryptobird",
  "abi": [
    {
      "inputs": [],
      "stateMutability": "nonpayable",
      "type": "constructor"
    },
    {
      "anonymous": false,
      "inputs": [
        {
          "indexed": true,
          "internalType": "address",
          "name": "from",
          "type": "address"
        },
        {
          "indexed": true,
          "internalType": "address",
          "name": "to",
          "type": "address"
        },
        {
          "indexed": true,
          "internalType": "uint256",
          "name": "tokenId",
          "type": "uint256"
        }
      ],
      "name": "Transfer",
      "type": "event"
    },
    {
      "inputs": [
        {
          "internalType": "uint256",
          "name": "",
          "type": "uint256"
        }
      ],
      "name": "KryptoBirdz",
      "outputs": [
        {
          "internalType": "string",
          "name": "",
          "type": "string"
        }
      ],
      "stateMutability": "view",
      "type": "function",
      "constant": true
    },
    {
      "inputs": [],
      "name": "name",
      "outputs": [
        {
          "internalType": "string",
          "name": "",
          "type": "string"
        }
      ],
      "stateMutability": "view",
      "type": "function",
      "constant": true
    },
    {
      "inputs": [],
      "name": "symbol",
      "outputs": [
        {
          "internalType": "string",
          "name": "",
          "type": "string"
        }
      ],
      "stateMutability": "view",
      "type": "function",
      "constant": true
    },
    {
      "inputs": [
        {
          "internalType": "string",
          "name": "_kryptoBird",
          "type": "string"
        }
      ],
      "name": "mint",
      "outputs": [],
      "stateMutability": "nonpayable",
      "type": "function"
    }
  ],
  "bytecode": "0x608060405234801561001057600080fd5b506040518060400160405280600a81526020017f4b727970746f42697264000000000000000000000000000000000000000000008152506040518060400160405280600581526020017f4b42495244000000000000000000000000000000000000000000000000000000815250818181600090805190602001906100959291906100b6565b5080600190805190602001906100ac9291906100b6565b50505050506101ba565b8280546100c290610159565b90600052602060002090601f0160209004810192826100e4576000855561012b565b82601f106100fd57805160ff191683800117855561012b565b8280016001018555821561012b579182015b8281111561012a57825182559160200191906001019061010f565b5b509050610138919061013c565b5090565b5b8082111561015557600081600090555060010161013d565b5090565b6000600282049050600182168061017157607f821691505b602082108114156101855761018461018b565b5b50919050565b7f4e487b7100000000000000000000000000000000000000000000000000000000600052602260045260246000fd5b610a7880620001ca6000396000f3fe608060405234801561001057600080fd5b506004361061004c5760003560e01c806306fdde031461005157806395d89b411461006f578063a3a1ff581461008d578063d85d3d27146100bd575b600080fd5b6100596100d9565b60405161006691906107a6565b60405180910390f35b61007761016b565b60405161008491906107a6565b60405180910390f35b6100a760048036038101906100a2919061069e565b6101fd565b6040516100b491906107a6565b60405180910390f35b6100d760048036038101906100d2919061065d565b6102a9565b005b6060600080546100e89061095b565b80601f01602080910402602001604051908101604052809291908181526020018280546101149061095b565b80156101615780601f1061013657610100808354040283529160200191610161565b820191906000526020600020905b81548152906001019060200180831161014457829003601f168201915b5050505050905090565b60606001805461017a9061095b565b80601f01602080910402602001604051908101604052809291908181526020018280546101a69061095b565b80156101f35780601f106101c8576101008083540402835291602001916101f3565b820191906000526020600020905b8154815290600101906020018083116101d657829003601f168201915b5050505050905090565b6004818154811061020d57600080fd5b9060005260206000200160009150905080546102289061095b565b80601f01602080910402602001604051908101604052809291908181526020018280546102549061095b565b80156102a15780601f10610276576101008083540402835291602001916102a1565b820191906000526020600020905b81548152906001019060200180831161028457829003601f168201915b505050505081565b6004819080600181540180825580915050600190039060005260206000200160009091909190915090805190602001906102e492919061053d565b50600060016004805490506102f991906108db565b90506103053382610309565b5050565b600073ffffffffffffffffffffffffffffffffffffffff168273ffffffffffffffffffffffffffffffffffffffff161415610379576040517f08c379a0000000000000000000000000000000000000000000000000000000008152600401610370906107c8565b60405180910390fd5b610382816104cb565b156103c2576040517f08c379a00000000000000000000000000000000000000000000000000000000081526004016103b9906107e8565b60405180910390fd5b816002600083815260200190815260200160002060006101000a81548173ffffffffffffffffffffffffffffffffffffffff021916908373ffffffffffffffffffffffffffffffffffffffff1602179055506001600360008473ffffffffffffffffffffffffffffffffffffffff1673ffffffffffffffffffffffffffffffffffffffff16815260200190815260200160002060008282546104649190610885565b92505081905550808273ffffffffffffffffffffffffffffffffffffffff16600073ffffffffffffffffffffffffffffffffffffffff167fddf252ad1be2c89b69c2b068fc378daa952ba7f163c4a11628f55a4df523b3ef60405160405180910390a45050565b6000806002600084815260200190815260200160002060009054906101000a900473ffffffffffffffffffffffffffffffffffffffff169050600073ffffffffffffffffffffffffffffffffffffffff168173ffffffffffffffffffffffffffffffffffffffff161415915050919050565b8280546105499061095b565b90600052602060002090601f01602090048101928261056b57600085556105b2565b82601f1061058457805160ff19168380011785556105b2565b828001600101855582156105b2579182015b828111156105b1578251825591602001919060010190610596565b5b5090506105bf91906105c3565b5090565b5b808211156105dc5760008160009055506001016105c4565b5090565b60006105f36105ee84610839565b610808565b90508281526020810184848401111561060b57600080fd5b610616848285610919565b509392505050565b600082601f83011261062f57600080fd5b813561063f8482602086016105e0565b91505092915050565b60008135905061065781610a2b565b92915050565b60006020828403121561066f57600080fd5b600082013567ffffffffffffffff81111561068957600080fd5b6106958482850161061e565b91505092915050565b6000602082840312156106b057600080fd5b60006106be84828501610648565b91505092915050565b60006106d282610869565b6106dc8185610874565b93506106ec818560208601610928565b6106f581610a1a565b840191505092915050565b600061070d602283610874565b91507f4552433732313a206d696e74696e6720746f20746865207a65726f206164647260008301527f65730000000000000000000000000000000000000000000000000000000000006020830152604082019050919050565b6000610773601a83610874565b91507f4552433732313a20746f6b656e20616c7265616479206d696e740000000000006000830152602082019050919050565b600060208201905081810360008301526107c081846106c7565b905092915050565b600060208201905081810360008301526107e181610700565b9050919050565b6000602082019050818103600083015261080181610766565b9050919050565b6000604051905081810181811067ffffffffffffffff8211171561082f5761082e6109eb565b5b8060405250919050565b600067ffffffffffffffff821115610854576108536109eb565b5b601f19601f8301169050602081019050919050565b600081519050919050565b600082825260208201905092915050565b60006108908261090f565b915061089b8361090f565b9250827fffffffffffffffffffffffffffffffffffffffffffffffffffffffffffffffff038211156108d0576108cf61098d565b5b828201905092915050565b60006108e68261090f565b91506108f18361090f565b9250828210156109045761090361098d565b5b828203905092915050565b6000819050919050565b82818337600083830152505050565b60005b8381101561094657808201518184015260208101905061092b565b83811115610955576000848401525b50505050565b6000600282049050600182168061097357607f821691505b60208210811415610987576109866109bc565b5b50919050565b7f4e487b7100000000000000000000000000000000000000000000000000000000600052601160045260246000fd5b7f4e487b7100000000000000000000000000000000000000000000000000000000600052602260045260246000fd5b7f4e487b7100000000000000000000000000000000000000000000000000000000600052604160045260246000fd5b6000601f19601f8301169050919050565b610a348161090f565b8114610a3f57600080fd5b5056fea2646970667358221220ed8dcf2626012e18f7d10a8d587643d614126a3c771e67ef4a70facf87913dbc64736f6c63430008000033",
  "immutableReferences": {},
  "source": "// SPDX-License-Identifier: MIT\r\npragma solidity ^0.8.0;\r\n\r\nimport './ERC721Connector.sol';\r\n\r\ncontract Kryptobird is ERC721Connector\r\n{\r\n  string[] public KryptoBirdz;\r\n\r\n  function mint(string memory _kryptoBird) public \r\n  {\r\n    // this is deprecated uint _id = KryptoBirdz.push(_kryptoBird);\r\n    // .push no longer returns the length but a ref to the added element\r\n    KryptoBirdz.push(_kryptoBird);\r\n    uint _id = KryptoBirdz.length - 1;\r\n    _mint(msg.sender, _id);\r\n  }\r\n  constructor() ERC721Connector('KryptoBird','KBIRD')\r\n  {\r\n    \r\n  }\r\n}",
  "sourcePath": "D:\\Study\\09.dapp\\nft-marketplace-starter-kit-main\\src\\contracts\\KryptoBirdz.sol",
  "compiler": {
    "name": "solc",
    "version": "0.8.0+commit.c7dfd78e.Emscripten.clang"
  },
  "schemaVersion": "3.4.6",
  "updatedAt": "2022-07-18T03:51:12.373Z",
  "networkType": "ethereum",
  "devdoc": {
    "kind": "dev",
    "methods": {},
    "version": 1
  },
  "userdoc": {
    "kind": "user",
    "methods": {},
    "version": 1
  }
}